{
  "_format": "hh-sol-artifact-1",
  "contractName": "Rep3Rating",
  "sourceName": "contracts/Rep3Rating.sol",
  "abi": [
    {
      "inputs": [
        {
          "internalType": "contract IEAS",
          "name": "eas",
          "type": "address"
        }
      ],
      "stateMutability": "nonpayable",
      "type": "constructor"
    },
    {
      "inputs": [],
      "name": "AccessDenied",
      "type": "error"
    },
    {
      "inputs": [],
      "name": "InsufficientValue",
      "type": "error"
    },
    {
      "inputs": [],
      "name": "InvalidEAS",
      "type": "error"
    },
    {
      "inputs": [],
      "name": "InvalidRating",
      "type": "error"
    },
    {
      "inputs": [],
      "name": "NotPayable",
      "type": "error"
    },
    {
      "inputs": [],
      "name": "NotTransferable",
      "type": "error"
    },
    {
      "anonymous": false,
      "inputs": [
        {
          "indexed": true,
          "internalType": "address",
          "name": "owner",
          "type": "address"
        },
        {
          "indexed": true,
          "internalType": "address",
          "name": "approved",
          "type": "address"
        },
        {
          "indexed": true,
          "internalType": "uint256",
          "name": "tokenId",
          "type": "uint256"
        }
      ],
      "name": "Approval",
      "type": "event"
    },
    {
      "anonymous": false,
      "inputs": [
        {
          "indexed": true,
          "internalType": "address",
          "name": "owner",
          "type": "address"
        },
        {
          "indexed": true,
          "internalType": "address",
          "name": "operator",
          "type": "address"
        },
        {
          "indexed": false,
          "internalType": "bool",
          "name": "approved",
          "type": "bool"
        }
      ],
      "name": "ApprovalForAll",
      "type": "event"
    },
    {
      "anonymous": false,
      "inputs": [
        {
          "indexed": true,
          "internalType": "address",
          "name": "previousOwner",
          "type": "address"
        },
        {
          "indexed": true,
          "internalType": "address",
          "name": "newOwner",
          "type": "address"
        }
      ],
      "name": "OwnershipTransferred",
      "type": "event"
    },
    {
      "anonymous": false,
      "inputs": [
        {
          "indexed": true,
          "internalType": "address",
          "name": "recipient",
          "type": "address"
        },
        {
          "indexed": true,
          "internalType": "address",
          "name": "attester",
          "type": "address"
        },
        {
          "indexed": false,
          "internalType": "bytes32",
          "name": "uid",
          "type": "bytes32"
        },
        {
          "indexed": false,
          "internalType": "bytes",
          "name": "data",
          "type": "bytes"
        },
        {
          "indexed": true,
          "internalType": "bool",
          "name": "minted",
          "type": "bool"
        }
      ],
      "name": "Rated",
      "type": "event"
    },
    {
      "anonymous": false,
      "inputs": [
        {
          "indexed": true,
          "internalType": "address",
          "name": "from",
          "type": "address"
        },
        {
          "indexed": true,
          "internalType": "address",
          "name": "to",
          "type": "address"
        },
        {
          "indexed": true,
          "internalType": "uint256",
          "name": "tokenId",
          "type": "uint256"
        }
      ],
      "name": "Transfer",
      "type": "event"
    },
    {
      "inputs": [
        {
          "internalType": "address",
          "name": "to",
          "type": "address"
        },
        {
          "internalType": "uint256",
          "name": "tokenId",
          "type": "uint256"
        }
      ],
      "name": "approve",
      "outputs": [],
      "stateMutability": "nonpayable",
      "type": "function"
    },
    {
      "inputs": [
        {
          "components": [
            {
              "internalType": "bytes32",
              "name": "uid",
              "type": "bytes32"
            },
            {
              "internalType": "bytes32",
              "name": "schema",
              "type": "bytes32"
            },
            {
              "internalType": "uint64",
              "name": "time",
              "type": "uint64"
            },
            {
              "internalType": "uint64",
              "name": "expirationTime",
              "type": "uint64"
            },
            {
              "internalType": "uint64",
              "name": "revocationTime",
              "type": "uint64"
            },
            {
              "internalType": "bytes32",
              "name": "refUID",
              "type": "bytes32"
            },
            {
              "internalType": "address",
              "name": "recipient",
              "type": "address"
            },
            {
              "internalType": "address",
              "name": "attester",
              "type": "address"
            },
            {
              "internalType": "bool",
              "name": "revocable",
              "type": "bool"
            },
            {
              "internalType": "bytes",
              "name": "data",
              "type": "bytes"
            }
          ],
          "internalType": "struct Attestation",
          "name": "attestation",
          "type": "tuple"
        }
      ],
      "name": "attest",
      "outputs": [
        {
          "internalType": "bool",
          "name": "",
          "type": "bool"
        }
      ],
      "stateMutability": "payable",
      "type": "function"
    },
    {
      "inputs": [
        {
          "internalType": "address",
          "name": "owner",
          "type": "address"
        }
      ],
      "name": "balanceOf",
      "outputs": [
        {
          "internalType": "uint256",
          "name": "",
          "type": "uint256"
        }
      ],
      "stateMutability": "view",
      "type": "function"
    },
    {
      "inputs": [
        {
          "internalType": "uint256",
          "name": "tokenId",
          "type": "uint256"
        }
      ],
      "name": "burn",
      "outputs": [],
      "stateMutability": "nonpayable",
      "type": "function"
    },
    {
      "inputs": [
        {
          "internalType": "uint256",
          "name": "tokenId",
          "type": "uint256"
        }
      ],
      "name": "exists",
      "outputs": [
        {
          "internalType": "bool",
          "name": "",
          "type": "bool"
        }
      ],
      "stateMutability": "view",
      "type": "function"
    },
    {
      "inputs": [
        {
          "internalType": "uint256",
          "name": "tokenId",
          "type": "uint256"
        }
      ],
      "name": "getApproved",
      "outputs": [
        {
          "internalType": "address",
          "name": "",
          "type": "address"
        }
      ],
      "stateMutability": "view",
      "type": "function"
    },
    {
      "inputs": [
        {
          "internalType": "address",
          "name": "owner",
          "type": "address"
        },
        {
          "internalType": "address",
          "name": "operator",
          "type": "address"
        }
      ],
      "name": "isApprovedForAll",
      "outputs": [
        {
          "internalType": "bool",
          "name": "",
          "type": "bool"
        }
      ],
      "stateMutability": "view",
      "type": "function"
    },
    {
      "inputs": [],
      "name": "isPayable",
      "outputs": [
        {
          "internalType": "bool",
          "name": "",
          "type": "bool"
        }
      ],
      "stateMutability": "pure",
      "type": "function"
    },
    {
      "inputs": [
        {
          "components": [
            {
              "internalType": "bytes32",
              "name": "uid",
              "type": "bytes32"
            },
            {
              "internalType": "bytes32",
              "name": "schema",
              "type": "bytes32"
            },
            {
              "internalType": "uint64",
              "name": "time",
              "type": "uint64"
            },
            {
              "internalType": "uint64",
              "name": "expirationTime",
              "type": "uint64"
            },
            {
              "internalType": "uint64",
              "name": "revocationTime",
              "type": "uint64"
            },
            {
              "internalType": "bytes32",
              "name": "refUID",
              "type": "bytes32"
            },
            {
              "internalType": "address",
              "name": "recipient",
              "type": "address"
            },
            {
              "internalType": "address",
              "name": "attester",
              "type": "address"
            },
            {
              "internalType": "bool",
              "name": "revocable",
              "type": "bool"
            },
            {
              "internalType": "bytes",
              "name": "data",
              "type": "bytes"
            }
          ],
          "internalType": "struct Attestation[]",
          "name": "attestations",
          "type": "tuple[]"
        },
        {
          "internalType": "uint256[]",
          "name": "values",
          "type": "uint256[]"
        }
      ],
      "name": "multiAttest",
      "outputs": [
        {
          "internalType": "bool",
          "name": "",
          "type": "bool"
        }
      ],
      "stateMutability": "payable",
      "type": "function"
    },
    {
      "inputs": [
        {
          "components": [
            {
              "internalType": "bytes32",
              "name": "uid",
              "type": "bytes32"
            },
            {
              "internalType": "bytes32",
              "name": "schema",
              "type": "bytes32"
            },
            {
              "internalType": "uint64",
              "name": "time",
              "type": "uint64"
            },
            {
              "internalType": "uint64",
              "name": "expirationTime",
              "type": "uint64"
            },
            {
              "internalType": "uint64",
              "name": "revocationTime",
              "type": "uint64"
            },
            {
              "internalType": "bytes32",
              "name": "refUID",
              "type": "bytes32"
            },
            {
              "internalType": "address",
              "name": "recipient",
              "type": "address"
            },
            {
              "internalType": "address",
              "name": "attester",
              "type": "address"
            },
            {
              "internalType": "bool",
              "name": "revocable",
              "type": "bool"
            },
            {
              "internalType": "bytes",
              "name": "data",
              "type": "bytes"
            }
          ],
          "internalType": "struct Attestation[]",
          "name": "attestations",
          "type": "tuple[]"
        },
        {
          "internalType": "uint256[]",
          "name": "values",
          "type": "uint256[]"
        }
      ],
      "name": "multiRevoke",
      "outputs": [
        {
          "internalType": "bool",
          "name": "",
          "type": "bool"
        }
      ],
      "stateMutability": "payable",
      "type": "function"
    },
    {
      "inputs": [],
      "name": "name",
      "outputs": [
        {
          "internalType": "string",
          "name": "",
          "type": "string"
        }
      ],
      "stateMutability": "view",
      "type": "function"
    },
    {
      "inputs": [],
      "name": "owner",
      "outputs": [
        {
          "internalType": "address",
          "name": "",
          "type": "address"
        }
      ],
      "stateMutability": "view",
      "type": "function"
    },
    {
      "inputs": [
        {
          "internalType": "uint256",
          "name": "tokenId",
          "type": "uint256"
        }
      ],
      "name": "ownerOf",
      "outputs": [
        {
          "internalType": "address",
          "name": "",
          "type": "address"
        }
      ],
      "stateMutability": "view",
      "type": "function"
    },
    {
      "inputs": [
        {
          "internalType": "address",
          "name": "",
          "type": "address"
        },
        {
          "internalType": "address",
          "name": "",
          "type": "address"
        }
      ],
      "name": "rated",
      "outputs": [
        {
          "internalType": "bool",
          "name": "",
          "type": "bool"
        }
      ],
      "stateMutability": "view",
      "type": "function"
    },
    {
      "inputs": [],
      "name": "renounceOwnership",
      "outputs": [],
      "stateMutability": "nonpayable",
      "type": "function"
    },
    {
      "inputs": [
        {
          "components": [
            {
              "internalType": "bytes32",
              "name": "uid",
              "type": "bytes32"
            },
            {
              "internalType": "bytes32",
              "name": "schema",
              "type": "bytes32"
            },
            {
              "internalType": "uint64",
              "name": "time",
              "type": "uint64"
            },
            {
              "internalType": "uint64",
              "name": "expirationTime",
              "type": "uint64"
            },
            {
              "internalType": "uint64",
              "name": "revocationTime",
              "type": "uint64"
            },
            {
              "internalType": "bytes32",
              "name": "refUID",
              "type": "bytes32"
            },
            {
              "internalType": "address",
              "name": "recipient",
              "type": "address"
            },
            {
              "internalType": "address",
              "name": "attester",
              "type": "address"
            },
            {
              "internalType": "bool",
              "name": "revocable",
              "type": "bool"
            },
            {
              "internalType": "bytes",
              "name": "data",
              "type": "bytes"
            }
          ],
          "internalType": "struct Attestation",
          "name": "attestation",
          "type": "tuple"
        }
      ],
      "name": "revoke",
      "outputs": [
        {
          "internalType": "bool",
          "name": "",
          "type": "bool"
        }
      ],
      "stateMutability": "payable",
      "type": "function"
    },
    {
      "inputs": [
        {
          "internalType": "address",
          "name": "from",
          "type": "address"
        },
        {
          "internalType": "address",
          "name": "to",
          "type": "address"
        },
        {
          "internalType": "uint256",
          "name": "tokenId",
          "type": "uint256"
        }
      ],
      "name": "safeTransferFrom",
      "outputs": [],
      "stateMutability": "nonpayable",
      "type": "function"
    },
    {
      "inputs": [
        {
          "internalType": "address",
          "name": "from",
          "type": "address"
        },
        {
          "internalType": "address",
          "name": "to",
          "type": "address"
        },
        {
          "internalType": "uint256",
          "name": "tokenId",
          "type": "uint256"
        },
        {
          "internalType": "bytes",
          "name": "data",
          "type": "bytes"
        }
      ],
      "name": "safeTransferFrom",
      "outputs": [],
      "stateMutability": "nonpayable",
      "type": "function"
    },
    {
      "inputs": [
        {
          "internalType": "address",
          "name": "operator",
          "type": "address"
        },
        {
          "internalType": "bool",
          "name": "approved",
          "type": "bool"
        }
      ],
      "name": "setApprovalForAll",
      "outputs": [],
      "stateMutability": "nonpayable",
      "type": "function"
    },
    {
      "inputs": [
        {
          "internalType": "bytes4",
          "name": "interfaceId",
          "type": "bytes4"
        }
      ],
      "name": "supportsInterface",
      "outputs": [
        {
          "internalType": "bool",
          "name": "",
          "type": "bool"
        }
      ],
      "stateMutability": "view",
      "type": "function"
    },
    {
      "inputs": [],
      "name": "symbol",
      "outputs": [
        {
          "internalType": "string",
          "name": "",
          "type": "string"
        }
      ],
      "stateMutability": "view",
      "type": "function"
    },
    {
      "inputs": [
        {
          "internalType": "uint256",
          "name": "tokenId",
          "type": "uint256"
        }
      ],
      "name": "tokenURI",
      "outputs": [
        {
          "internalType": "string",
          "name": "",
          "type": "string"
        }
      ],
      "stateMutability": "view",
      "type": "function"
    },
    {
      "inputs": [
        {
          "internalType": "address",
          "name": "from",
          "type": "address"
        },
        {
          "internalType": "address",
          "name": "to",
          "type": "address"
        },
        {
          "internalType": "uint256",
          "name": "tokenId",
          "type": "uint256"
        }
      ],
      "name": "transferFrom",
      "outputs": [],
      "stateMutability": "nonpayable",
      "type": "function"
    },
    {
      "inputs": [
        {
          "internalType": "address",
          "name": "newOwner",
          "type": "address"
        }
      ],
      "name": "transferOwnership",
      "outputs": [],
      "stateMutability": "nonpayable",
      "type": "function"
    },
    {
      "inputs": [],
      "name": "version",
      "outputs": [
        {
          "internalType": "string",
          "name": "",
          "type": "string"
        }
      ],
      "stateMutability": "view",
      "type": "function"
    },
    {
      "stateMutability": "payable",
      "type": "receive"
    }
  ],
  "bytecode": "0x6101006040523480156200001257600080fd5b50604051620041d5380380620041d58339818101604052810190620000389190620002fa565b8060016000806040518060400160405280600b81526020017f5265703320526174696e670000000000000000000000000000000000000000008152506040518060400160405280600481526020017f52455033000000000000000000000000000000000000000000000000000000008152508160009081620000bb9190620005a6565b508060019081620000cd9190620005a6565b505050620000f0620000e4620001ae60201b60201c565b620001b660201b60201c565b82608081815250508160a081815250508060c08181525050505050600073ffffffffffffffffffffffffffffffffffffffff168173ffffffffffffffffffffffffffffffffffffffff160362000172576040517f83780ffe00000000000000000000000000000000000000000000000000000000815260040160405180910390fd5b8073ffffffffffffffffffffffffffffffffffffffff1660e08173ffffffffffffffffffffffffffffffffffffffff168152505050506200068d565b600033905090565b6000600660009054906101000a900473ffffffffffffffffffffffffffffffffffffffff16905081600660006101000a81548173ffffffffffffffffffffffffffffffffffffffff021916908373ffffffffffffffffffffffffffffffffffffffff1602179055508173ffffffffffffffffffffffffffffffffffffffff168173ffffffffffffffffffffffffffffffffffffffff167f8be0079c531659141344cd1fd0a4f28419497f9722a3daafe3b4186f6b6457e060405160405180910390a35050565b600080fd5b600073ffffffffffffffffffffffffffffffffffffffff82169050919050565b6000620002ae8262000281565b9050919050565b6000620002c282620002a1565b9050919050565b620002d481620002b5565b8114620002e057600080fd5b50565b600081519050620002f481620002c9565b92915050565b6000602082840312156200031357620003126200027c565b5b60006200032384828501620002e3565b91505092915050565b600081519050919050565b7f4e487b7100000000000000000000000000000000000000000000000000000000600052604160045260246000fd5b7f4e487b7100000000000000000000000000000000000000000000000000000000600052602260045260246000fd5b60006002820490506001821680620003ae57607f821691505b602082108103620003c457620003c362000366565b5b50919050565b60008190508160005260206000209050919050565b60006020601f8301049050919050565b600082821b905092915050565b6000600883026200042e7fffffffffffffffffffffffffffffffffffffffffffffffffffffffffffffffff82620003ef565b6200043a8683620003ef565b95508019841693508086168417925050509392505050565b6000819050919050565b6000819050919050565b600062000487620004816200047b8462000452565b6200045c565b62000452565b9050919050565b6000819050919050565b620004a38362000466565b620004bb620004b2826200048e565b848454620003fc565b825550505050565b600090565b620004d2620004c3565b620004df81848462000498565b505050565b5b818110156200050757620004fb600082620004c8565b600181019050620004e5565b5050565b601f82111562000556576200052081620003ca565b6200052b84620003df565b810160208510156200053b578190505b620005536200054a85620003df565b830182620004e4565b50505b505050565b600082821c905092915050565b60006200057b600019846008026200055b565b1980831691505092915050565b600062000596838362000568565b9150826002028217905092915050565b620005b1826200032c565b67ffffffffffffffff811115620005cd57620005cc62000337565b5b620005d9825462000395565b620005e68282856200050b565b600060209050601f8311600181146200061e576000841562000609578287015190505b62000615858262000588565b86555062000685565b601f1984166200062e86620003ca565b60005b82811015620006585784890151825560018201915060208501945060208101905062000631565b8683101562000678578489015162000674601f89168262000568565b8355505b6001600288020188555050505b505050505050565b60805160a05160c05160e051613b07620006ce600039600081816119db01526120f401526000610a8601526000610a5d01526000610a340152613b076000f3fe60806040526004361061016a5760003560e01c806388e5b2d9116100d1578063b88d4fde1161008a578063e49617e111610064578063e49617e1146105a3578063e60c3505146105d3578063e985e9c514610603578063f2fde38b14610640576101af565b8063b88d4fde14610512578063c87b56dd1461053b578063ce46e04614610578576101af565b806388e5b2d9146103f65780638da5cb5b1461042657806391db0b7e1461045157806395d89b4114610481578063a22cb465146104ac578063ab567b5b146104d5576101af565b806342966c681161012357806342966c68146102d45780634f558e79146102fd57806354fd4d501461033a5780636352211e1461036557806370a08231146103a2578063715018a6146103df576101af565b806301ffc9a7146101b457806306fdde03146101f1578063081812fc1461021c578063095ea7b31461025957806323b872dd1461028257806342842e0e146102ab576101af565b366101af57610177610669565b6101ad576040517f1574f9f300000000000000000000000000000000000000000000000000000000815260040160405180910390fd5b005b600080fd5b3480156101c057600080fd5b506101db60048036038101906101d69190612855565b61066e565b6040516101e8919061289d565b60405180910390f35b3480156101fd57600080fd5b50610206610750565b6040516102139190612948565b60405180910390f35b34801561022857600080fd5b50610243600480360381019061023e91906129a0565b6107e2565b6040516102509190612a0e565b60405180910390f35b34801561026557600080fd5b50610280600480360381019061027b9190612a55565b610828565b005b34801561028e57600080fd5b506102a960048036038101906102a49190612a95565b61093f565b005b3480156102b757600080fd5b506102d260048036038101906102cd9190612a95565b61099f565b005b3480156102e057600080fd5b506102fb60048036038101906102f691906129a0565b6109bf565b005b34801561030957600080fd5b50610324600480360381019061031f91906129a0565b610a1b565b604051610331919061289d565b60405180910390f35b34801561034657600080fd5b5061034f610a2d565b60405161035c9190612948565b60405180910390f35b34801561037157600080fd5b5061038c600480360381019061038791906129a0565b610ad0565b6040516103999190612a0e565b60405180910390f35b3480156103ae57600080fd5b506103c960048036038101906103c49190612ae8565b610b56565b6040516103d69190612b24565b60405180910390f35b3480156103eb57600080fd5b506103f4610c0d565b005b610410600480360381019061040b9190612bfa565b610c21565b60405161041d919061289d565b60405180910390f35b34801561043257600080fd5b5061043b610d00565b6040516104489190612a0e565b60405180910390f35b61046b60048036038101906104669190612bfa565b610d2a565b604051610478919061289d565b60405180910390f35b34801561048d57600080fd5b50610496610e09565b6040516104a39190612948565b60405180910390f35b3480156104b857600080fd5b506104d360048036038101906104ce9190612ca7565b610e9b565b005b3480156104e157600080fd5b506104fc60048036038101906104f79190612ce7565b610eb1565b604051610509919061289d565b60405180910390f35b34801561051e57600080fd5b5061053960048036038101906105349190612e57565b610ee0565b005b34801561054757600080fd5b50610562600480360381019061055d91906129a0565b610f42565b60405161056f9190612948565b60405180910390f35b34801561058457600080fd5b5061058d610669565b60405161059a919061289d565b60405180910390f35b6105bd60048036038101906105b89190612eff565b610faa565b6040516105ca919061289d565b60405180910390f35b6105ed60048036038101906105e89190612eff565b610fc5565b6040516105fa919061289d565b60405180910390f35b34801561060f57600080fd5b5061062a60048036038101906106259190612ce7565b610fe0565b604051610637919061289d565b60405180910390f35b34801561064c57600080fd5b5061066760048036038101906106629190612ae8565b611074565b005b600090565b60007f80ac58cd000000000000000000000000000000000000000000000000000000007bffffffffffffffffffffffffffffffffffffffffffffffffffffffff1916827bffffffffffffffffffffffffffffffffffffffffffffffffffffffff1916148061073957507f5b5e139f000000000000000000000000000000000000000000000000000000007bffffffffffffffffffffffffffffffffffffffffffffffffffffffff1916827bffffffffffffffffffffffffffffffffffffffffffffffffffffffff1916145b806107495750610748826110f7565b5b9050919050565b60606000805461075f90612f77565b80601f016020809104026020016040519081016040528092919081815260200182805461078b90612f77565b80156107d85780601f106107ad576101008083540402835291602001916107d8565b820191906000526020600020905b8154815290600101906020018083116107bb57829003601f168201915b5050505050905090565b60006107ed82611161565b6004600083815260200190815260200160002060009054906101000a900473ffffffffffffffffffffffffffffffffffffffff169050919050565b600061083382610ad0565b90508073ffffffffffffffffffffffffffffffffffffffff168373ffffffffffffffffffffffffffffffffffffffff16036108a3576040517f08c379a000000000000000000000000000000000000000000000000000000000815260040161089a9061301a565b60405180910390fd5b8073ffffffffffffffffffffffffffffffffffffffff166108c26111ac565b73ffffffffffffffffffffffffffffffffffffffff1614806108f157506108f0816108eb6111ac565b610fe0565b5b610930576040517f08c379a0000000000000000000000000000000000000000000000000000000008152600401610927906130ac565b60405180910390fd5b61093a83836111b4565b505050565b61095061094a6111ac565b8261126d565b61098f576040517f08c379a00000000000000000000000000000000000000000000000000000000081526004016109869061313e565b60405180910390fd5b61099a838383611302565b505050565b6109ba83838360405180602001604052806000815250610ee0565b505050565b6109d06109ca6111ac565b8261126d565b610a0f576040517f08c379a0000000000000000000000000000000000000000000000000000000008152600401610a069061313e565b60405180910390fd5b610a18816115fb565b50565b6000610a2682611749565b9050919050565b6060610a587f000000000000000000000000000000000000000000000000000000000000000061178a565b610a817f000000000000000000000000000000000000000000000000000000000000000061178a565b610aaa7f000000000000000000000000000000000000000000000000000000000000000061178a565b604051602001610abc939291906131e6565b604051602081830303815290604052905090565b600080610adc83611858565b9050600073ffffffffffffffffffffffffffffffffffffffff168173ffffffffffffffffffffffffffffffffffffffff1603610b4d576040517f08c379a0000000000000000000000000000000000000000000000000000000008152600401610b4490613279565b60405180910390fd5b80915050919050565b60008073ffffffffffffffffffffffffffffffffffffffff168273ffffffffffffffffffffffffffffffffffffffff1603610bc6576040517f08c379a0000000000000000000000000000000000000000000000000000000008152600401610bbd9061330b565b60405180910390fd5b600360008373ffffffffffffffffffffffffffffffffffffffff1673ffffffffffffffffffffffffffffffffffffffff168152602001908152602001600020549050919050565b610c15611895565b610c1f6000611913565b565b6000610c2b6119d9565b6000858590509050600034905060005b82811015610cf0576000868683818110610c5857610c5761332b565b5b90506020020135905082811115610c9b576040517f1101129400000000000000000000000000000000000000000000000000000000815260040160405180910390fd5b610cc9898984818110610cb157610cb061332b565b5b9050602002810190610cc39190613369565b82611a60565b610cda576000945050505050610cf8565b808303925050610ce981611a90565b9050610c3b565b506001925050505b949350505050565b6000600660009054906101000a900473ffffffffffffffffffffffffffffffffffffffff16905090565b6000610d346119d9565b6000858590509050600034905060005b82811015610df9576000868683818110610d6157610d6061332b565b5b90506020020135905082811115610da4576040517f1101129400000000000000000000000000000000000000000000000000000000815260040160405180910390fd5b610dd2898984818110610dba57610db961332b565b5b9050602002810190610dcc9190613369565b82611a9d565b610de3576000945050505050610e01565b808303925050610df281611a90565b9050610d44565b506001925050505b949350505050565b606060018054610e1890612f77565b80601f0160208091040260200160405190810160405280929190818152602001828054610e4490612f77565b8015610e915780601f10610e6657610100808354040283529160200191610e91565b820191906000526020600020905b815481529060010190602001808311610e7457829003601f168201915b5050505050905090565b610ead610ea66111ac565b8383611eed565b5050565b60076020528160005260406000206020528060005260406000206000915091509054906101000a900460ff1681565b610ef1610eeb6111ac565b8361126d565b610f30576040517f08c379a0000000000000000000000000000000000000000000000000000000008152600401610f279061313e565b60405180910390fd5b610f3c84848484612059565b50505050565b6060610f4d82611161565b6000610f576120b5565b90506000815111610f775760405180602001604052806000815250610fa2565b80610f818461178a565b604051602001610f92929190613392565b6040516020818303038152906040525b915050919050565b6000610fb46119d9565b610fbe8234611a60565b9050919050565b6000610fcf6119d9565b610fd98234611a9d565b9050919050565b6000600560008473ffffffffffffffffffffffffffffffffffffffff1673ffffffffffffffffffffffffffffffffffffffff16815260200190815260200160002060008373ffffffffffffffffffffffffffffffffffffffff1673ffffffffffffffffffffffffffffffffffffffff16815260200190815260200160002060009054906101000a900460ff16905092915050565b61107c611895565b600073ffffffffffffffffffffffffffffffffffffffff168173ffffffffffffffffffffffffffffffffffffffff16036110eb576040517f08c379a00000000000000000000000000000000000000000000000000000000081526004016110e290613428565b60405180910390fd5b6110f481611913565b50565b60007f01ffc9a7000000000000000000000000000000000000000000000000000000007bffffffffffffffffffffffffffffffffffffffffffffffffffffffff1916827bffffffffffffffffffffffffffffffffffffffffffffffffffffffff1916149050919050565b61116a81611749565b6111a9576040517f08c379a00000000000000000000000000000000000000000000000000000000081526004016111a090613279565b60405180910390fd5b50565b600033905090565b816004600083815260200190815260200160002060006101000a81548173ffffffffffffffffffffffffffffffffffffffff021916908373ffffffffffffffffffffffffffffffffffffffff160217905550808273ffffffffffffffffffffffffffffffffffffffff1661122783610ad0565b73ffffffffffffffffffffffffffffffffffffffff167f8c5be1e5ebec7d5bd14f71427d1e84f3dd0314c0f7b2291e5b200ac8c7c3b92560405160405180910390a45050565b60008061127983610ad0565b90508073ffffffffffffffffffffffffffffffffffffffff168473ffffffffffffffffffffffffffffffffffffffff1614806112bb57506112ba8185610fe0565b5b806112f957508373ffffffffffffffffffffffffffffffffffffffff166112e1846107e2565b73ffffffffffffffffffffffffffffffffffffffff16145b91505092915050565b8273ffffffffffffffffffffffffffffffffffffffff1661132282610ad0565b73ffffffffffffffffffffffffffffffffffffffff1614611378576040517f08c379a000000000000000000000000000000000000000000000000000000000815260040161136f906134ba565b60405180910390fd5b600073ffffffffffffffffffffffffffffffffffffffff168273ffffffffffffffffffffffffffffffffffffffff16036113e7576040517f08c379a00000000000000000000000000000000000000000000000000000000081526004016113de9061354c565b60405180910390fd5b6113f483838360016120f2565b8273ffffffffffffffffffffffffffffffffffffffff1661141482610ad0565b73ffffffffffffffffffffffffffffffffffffffff161461146a576040517f08c379a0000000000000000000000000000000000000000000000000000000008152600401611461906134ba565b60405180910390fd5b6004600082815260200190815260200160002060006101000a81549073ffffffffffffffffffffffffffffffffffffffff02191690556001600360008573ffffffffffffffffffffffffffffffffffffffff1673ffffffffffffffffffffffffffffffffffffffff168152602001908152602001600020600082825403925050819055506001600360008473ffffffffffffffffffffffffffffffffffffffff1673ffffffffffffffffffffffffffffffffffffffff16815260200190815260200160002060008282540192505081905550816002600083815260200190815260200160002060006101000a81548173ffffffffffffffffffffffffffffffffffffffff021916908373ffffffffffffffffffffffffffffffffffffffff160217905550808273ffffffffffffffffffffffffffffffffffffffff168473ffffffffffffffffffffffffffffffffffffffff167fddf252ad1be2c89b69c2b068fc378daa952ba7f163c4a11628f55a4df523b3ef60405160405180910390a46115f68383836001612184565b505050565b600061160682610ad0565b90506116168160008460016120f2565b61161f82610ad0565b90506004600083815260200190815260200160002060006101000a81549073ffffffffffffffffffffffffffffffffffffffff02191690556001600360008373ffffffffffffffffffffffffffffffffffffffff1673ffffffffffffffffffffffffffffffffffffffff168152602001908152602001600020600082825403925050819055506002600083815260200190815260200160002060006101000a81549073ffffffffffffffffffffffffffffffffffffffff021916905581600073ffffffffffffffffffffffffffffffffffffffff168273ffffffffffffffffffffffffffffffffffffffff167fddf252ad1be2c89b69c2b068fc378daa952ba7f163c4a11628f55a4df523b3ef60405160405180910390a4611745816000846001612184565b5050565b60008073ffffffffffffffffffffffffffffffffffffffff1661176b83611858565b73ffffffffffffffffffffffffffffffffffffffff1614159050919050565b6060600060016117998461218a565b01905060008167ffffffffffffffff8111156117b8576117b7612d2c565b5b6040519080825280601f01601f1916602001820160405280156117ea5781602001600182028036833780820191505090505b509050600082602001820190505b60011561184d578080600190039150507f3031323334353637383961626364656600000000000000000000000000000000600a86061a8153600a85816118415761184061356c565b5b049450600085036117f8575b819350505050919050565b60006002600083815260200190815260200160002060009054906101000a900473ffffffffffffffffffffffffffffffffffffffff169050919050565b61189d6111ac565b73ffffffffffffffffffffffffffffffffffffffff166118bb610d00565b73ffffffffffffffffffffffffffffffffffffffff1614611911576040517f08c379a0000000000000000000000000000000000000000000000000000000008152600401611908906135e7565b60405180910390fd5b565b6000600660009054906101000a900473ffffffffffffffffffffffffffffffffffffffff16905081600660006101000a81548173ffffffffffffffffffffffffffffffffffffffff021916908373ffffffffffffffffffffffffffffffffffffffff1602179055508173ffffffffffffffffffffffffffffffffffffffff168173ffffffffffffffffffffffffffffffffffffffff167f8be0079c531659141344cd1fd0a4f28419497f9722a3daafe3b4186f6b6457e060405160405180910390a35050565b7f000000000000000000000000000000000000000000000000000000000000000073ffffffffffffffffffffffffffffffffffffffff163373ffffffffffffffffffffffffffffffffffffffff1614611a5e576040517f4ca8886700000000000000000000000000000000000000000000000000000000815260040160405180910390fd5b565b600080836000013560001c9050611a7681611749565b15611a8557611a84816115fb565b5b600191505092915050565b6000600182019050919050565b600080600084806101200190611ab39190613607565b810190611ac09190613744565b915091508460c0016020810190611ad79190612ae8565b73ffffffffffffffffffffffffffffffffffffffff168560e0016020810190611b009190612ae8565b73ffffffffffffffffffffffffffffffffffffffff1603611b4d576040517fd29df2dd00000000000000000000000000000000000000000000000000000000815260040160405180910390fd5b600760008660e0016020810190611b649190612ae8565b73ffffffffffffffffffffffffffffffffffffffff1673ffffffffffffffffffffffffffffffffffffffff16815260200190815260200160002060008660c0016020810190611bb39190612ae8565b73ffffffffffffffffffffffffffffffffffffffff1673ffffffffffffffffffffffffffffffffffffffff16815260200190815260200160002060009054906101000a900460ff1615611c32576040517fd29df2dd00000000000000000000000000000000000000000000000000000000815260040160405180910390fd5b60018260ff161080611c47575060058260ff16115b15611c7e576040517fd29df2dd00000000000000000000000000000000000000000000000000000000815260040160405180910390fd5b6000856000013560001c9050611cb860008760c0016020810190611ca29190612ae8565b83604051806020016040528060008152506122dd565b15611d8257611cd98660c0016020810190611cd39190612ae8565b82612422565b600115158660e0016020810190611cf09190612ae8565b73ffffffffffffffffffffffffffffffffffffffff168760c0016020810190611d199190612ae8565b73ffffffffffffffffffffffffffffffffffffffff167ff0cbbe765ea0c876f7822974e9388d2600e3d5d0f2f6c4cf8c898f7e32192afc89600001358a806101200190611d669190613607565b604051611d75939291906137f7565b60405180910390a4611e27565b600015158660e0016020810190611d999190612ae8565b73ffffffffffffffffffffffffffffffffffffffff168760c0016020810190611dc29190612ae8565b73ffffffffffffffffffffffffffffffffffffffff167ff0cbbe765ea0c876f7822974e9388d2600e3d5d0f2f6c4cf8c898f7e32192afc89600001358a806101200190611e0f9190613607565b604051611e1e939291906137f7565b60405180910390a45b6001600760008860e0016020810190611e409190612ae8565b73ffffffffffffffffffffffffffffffffffffffff1673ffffffffffffffffffffffffffffffffffffffff16815260200190815260200160002060008860c0016020810190611e8f9190612ae8565b73ffffffffffffffffffffffffffffffffffffffff1673ffffffffffffffffffffffffffffffffffffffff16815260200190815260200160002060006101000a81548160ff0219169083151502179055506001935050505092915050565b8173ffffffffffffffffffffffffffffffffffffffff168373ffffffffffffffffffffffffffffffffffffffff1603611f5b576040517f08c379a0000000000000000000000000000000000000000000000000000000008152600401611f5290613875565b60405180910390fd5b80600560008573ffffffffffffffffffffffffffffffffffffffff1673ffffffffffffffffffffffffffffffffffffffff16815260200190815260200160002060008473ffffffffffffffffffffffffffffffffffffffff1673ffffffffffffffffffffffffffffffffffffffff16815260200190815260200160002060006101000a81548160ff0219169083151502179055508173ffffffffffffffffffffffffffffffffffffffff168373ffffffffffffffffffffffffffffffffffffffff167f17307eab39ab6107e8899845ad3d59bd9653f200f220920489ca2b5937696c318360405161204c919061289d565b60405180910390a3505050565b612064848484611302565b6120708484848461263f565b6120af576040517f08c379a00000000000000000000000000000000000000000000000000000000081526004016120a690613907565b60405180910390fd5b50505050565b60606040518060400160405280601a81526020017f68747470733a2f2f6170692e726570332e62696f2f6d6574612f000000000000815250905090565b7f000000000000000000000000000000000000000000000000000000000000000073ffffffffffffffffffffffffffffffffffffffff166121316111ac565b73ffffffffffffffffffffffffffffffffffffffff161461217e576040517fdc8d8db700000000000000000000000000000000000000000000000000000000815260040160405180910390fd5b50505050565b50505050565b600080600090507a184f03e93ff9f4daa797ed6e38ed64bf6a1f01000000000000000083106121e8577a184f03e93ff9f4daa797ed6e38ed64bf6a1f01000000000000000083816121de576121dd61356c565b5b0492506040810190505b6d04ee2d6d415b85acef81000000008310612225576d04ee2d6d415b85acef8100000000838161221b5761221a61356c565b5b0492506020810190505b662386f26fc10000831061225457662386f26fc10000838161224a5761224961356c565b5b0492506010810190505b6305f5e100831061227d576305f5e10083816122735761227261356c565b5b0492506008810190505b61271083106122a25761271083816122985761229761356c565b5b0492506004810190505b606483106122c557606483816122bb576122ba61356c565b5b0492506002810190505b600a83106122d4576001810190505b80915050919050565b60006122fe8473ffffffffffffffffffffffffffffffffffffffff166127c6565b15612415578373ffffffffffffffffffffffffffffffffffffffff1663150b7a026123276111ac565b8786866040518563ffffffff1660e01b8152600401612349949392919061396b565b6020604051808303816000875af192505050801561238557506040513d601f19601f8201168201806040525081019061238291906139cc565b60015b6123c5573d80600081146123b5576040519150601f19603f3d011682016040523d82523d6000602084013e6123ba565b606091505b50600091505061241a565b63150b7a0260e01b7bffffffffffffffffffffffffffffffffffffffffffffffffffffffff1916817bffffffffffffffffffffffffffffffffffffffffffffffffffffffff19161491505061241a565b600190505b949350505050565b600073ffffffffffffffffffffffffffffffffffffffff168273ffffffffffffffffffffffffffffffffffffffff1603612491576040517f08c379a000000000000000000000000000000000000000000000000000000000815260040161248890613a45565b60405180910390fd5b61249a81611749565b156124da576040517f08c379a00000000000000000000000000000000000000000000000000000000081526004016124d190613ab1565b60405180910390fd5b6124e86000838360016120f2565b6124f181611749565b15612531576040517f08c379a000000000000000000000000000000000000000000000000000000000815260040161252890613ab1565b60405180910390fd5b6001600360008473ffffffffffffffffffffffffffffffffffffffff1673ffffffffffffffffffffffffffffffffffffffff16815260200190815260200160002060008282540192505081905550816002600083815260200190815260200160002060006101000a81548173ffffffffffffffffffffffffffffffffffffffff021916908373ffffffffffffffffffffffffffffffffffffffff160217905550808273ffffffffffffffffffffffffffffffffffffffff16600073ffffffffffffffffffffffffffffffffffffffff167fddf252ad1be2c89b69c2b068fc378daa952ba7f163c4a11628f55a4df523b3ef60405160405180910390a461263b600083836001612184565b5050565b60006126608473ffffffffffffffffffffffffffffffffffffffff166127c6565b156127b9578373ffffffffffffffffffffffffffffffffffffffff1663150b7a026126896111ac565b8786866040518563ffffffff1660e01b81526004016126ab949392919061396b565b6020604051808303816000875af19250505080156126e757506040513d601f19601f820116820180604052508101906126e491906139cc565b60015b612769573d8060008114612717576040519150601f19603f3d011682016040523d82523d6000602084013e61271c565b606091505b506000815103612761576040517f08c379a000000000000000000000000000000000000000000000000000000000815260040161275890613907565b60405180910390fd5b805181602001fd5b63150b7a0260e01b7bffffffffffffffffffffffffffffffffffffffffffffffffffffffff1916817bffffffffffffffffffffffffffffffffffffffffffffffffffffffff1916149150506127be565b600190505b949350505050565b6000808273ffffffffffffffffffffffffffffffffffffffff163b119050919050565b6000604051905090565b600080fd5b600080fd5b60007fffffffff0000000000000000000000000000000000000000000000000000000082169050919050565b612832816127fd565b811461283d57600080fd5b50565b60008135905061284f81612829565b92915050565b60006020828403121561286b5761286a6127f3565b5b600061287984828501612840565b91505092915050565b60008115159050919050565b61289781612882565b82525050565b60006020820190506128b2600083018461288e565b92915050565b600081519050919050565b600082825260208201905092915050565b60005b838110156128f25780820151818401526020810190506128d7565b60008484015250505050565b6000601f19601f8301169050919050565b600061291a826128b8565b61292481856128c3565b93506129348185602086016128d4565b61293d816128fe565b840191505092915050565b60006020820190508181036000830152612962818461290f565b905092915050565b6000819050919050565b61297d8161296a565b811461298857600080fd5b50565b60008135905061299a81612974565b92915050565b6000602082840312156129b6576129b56127f3565b5b60006129c48482850161298b565b91505092915050565b600073ffffffffffffffffffffffffffffffffffffffff82169050919050565b60006129f8826129cd565b9050919050565b612a08816129ed565b82525050565b6000602082019050612a2360008301846129ff565b92915050565b612a32816129ed565b8114612a3d57600080fd5b50565b600081359050612a4f81612a29565b92915050565b60008060408385031215612a6c57612a6b6127f3565b5b6000612a7a85828601612a40565b9250506020612a8b8582860161298b565b9150509250929050565b600080600060608486031215612aae57612aad6127f3565b5b6000612abc86828701612a40565b9350506020612acd86828701612a40565b9250506040612ade8682870161298b565b9150509250925092565b600060208284031215612afe57612afd6127f3565b5b6000612b0c84828501612a40565b91505092915050565b612b1e8161296a565b82525050565b6000602082019050612b396000830184612b15565b92915050565b600080fd5b600080fd5b600080fd5b60008083601f840112612b6457612b63612b3f565b5b8235905067ffffffffffffffff811115612b8157612b80612b44565b5b602083019150836020820283011115612b9d57612b9c612b49565b5b9250929050565b60008083601f840112612bba57612bb9612b3f565b5b8235905067ffffffffffffffff811115612bd757612bd6612b44565b5b602083019150836020820283011115612bf357612bf2612b49565b5b9250929050565b60008060008060408587031215612c1457612c136127f3565b5b600085013567ffffffffffffffff811115612c3257612c316127f8565b5b612c3e87828801612b4e565b9450945050602085013567ffffffffffffffff811115612c6157612c606127f8565b5b612c6d87828801612ba4565b925092505092959194509250565b612c8481612882565b8114612c8f57600080fd5b50565b600081359050612ca181612c7b565b92915050565b60008060408385031215612cbe57612cbd6127f3565b5b6000612ccc85828601612a40565b9250506020612cdd85828601612c92565b9150509250929050565b60008060408385031215612cfe57612cfd6127f3565b5b6000612d0c85828601612a40565b9250506020612d1d85828601612a40565b9150509250929050565b600080fd5b7f4e487b7100000000000000000000000000000000000000000000000000000000600052604160045260246000fd5b612d64826128fe565b810181811067ffffffffffffffff82111715612d8357612d82612d2c565b5b80604052505050565b6000612d966127e9565b9050612da28282612d5b565b919050565b600067ffffffffffffffff821115612dc257612dc1612d2c565b5b612dcb826128fe565b9050602081019050919050565b82818337600083830152505050565b6000612dfa612df584612da7565b612d8c565b905082815260208101848484011115612e1657612e15612d27565b5b612e21848285612dd8565b509392505050565b600082601f830112612e3e57612e3d612b3f565b5b8135612e4e848260208601612de7565b91505092915050565b60008060008060808587031215612e7157612e706127f3565b5b6000612e7f87828801612a40565b9450506020612e9087828801612a40565b9350506040612ea18782880161298b565b925050606085013567ffffffffffffffff811115612ec257612ec16127f8565b5b612ece87828801612e29565b91505092959194509250565b600080fd5b60006101408284031215612ef657612ef5612eda565b5b81905092915050565b600060208284031215612f1557612f146127f3565b5b600082013567ffffffffffffffff811115612f3357612f326127f8565b5b612f3f84828501612edf565b91505092915050565b7f4e487b7100000000000000000000000000000000000000000000000000000000600052602260045260246000fd5b60006002820490506001821680612f8f57607f821691505b602082108103612fa257612fa1612f48565b5b50919050565b7f4552433732313a20617070726f76616c20746f2063757272656e74206f776e6560008201527f7200000000000000000000000000000000000000000000000000000000000000602082015250565b60006130046021836128c3565b915061300f82612fa8565b604082019050919050565b6000602082019050818103600083015261303381612ff7565b9050919050565b7f4552433732313a20617070726f76652063616c6c6572206973206e6f7420746f60008201527f6b656e206f776e6572206f7220617070726f76656420666f7220616c6c000000602082015250565b6000613096603d836128c3565b91506130a18261303a565b604082019050919050565b600060208201905081810360008301526130c581613089565b9050919050565b7f4552433732313a2063616c6c6572206973206e6f7420746f6b656e206f776e6560008201527f72206f7220617070726f76656400000000000000000000000000000000000000602082015250565b6000613128602d836128c3565b9150613133826130cc565b604082019050919050565b600060208201905081810360008301526131578161311b565b9050919050565b600081905092915050565b6000613174826128b8565b61317e818561315e565b935061318e8185602086016128d4565b80840191505092915050565b7f2e00000000000000000000000000000000000000000000000000000000000000600082015250565b60006131d060018361315e565b91506131db8261319a565b600182019050919050565b60006131f28286613169565b91506131fd826131c3565b91506132098285613169565b9150613214826131c3565b91506132208284613169565b9150819050949350505050565b7f4552433732313a20696e76616c696420746f6b656e2049440000000000000000600082015250565b60006132636018836128c3565b915061326e8261322d565b602082019050919050565b6000602082019050818103600083015261329281613256565b9050919050565b7f4552433732313a2061646472657373207a65726f206973206e6f74206120766160008201527f6c6964206f776e65720000000000000000000000000000000000000000000000602082015250565b60006132f56029836128c3565b915061330082613299565b604082019050919050565b60006020820190508181036000830152613324816132e8565b9050919050565b7f4e487b7100000000000000000000000000000000000000000000000000000000600052603260045260246000fd5b600080fd5b600080fd5b600080fd5b600082356001610140038336030381126133865761338561335a565b5b80830191505092915050565b600061339e8285613169565b91506133aa8284613169565b91508190509392505050565b7f4f776e61626c653a206e6577206f776e657220697320746865207a65726f206160008201527f6464726573730000000000000000000000000000000000000000000000000000602082015250565b60006134126026836128c3565b915061341d826133b6565b604082019050919050565b6000602082019050818103600083015261344181613405565b9050919050565b7f4552433732313a207472616e736665722066726f6d20696e636f72726563742060008201527f6f776e6572000000000000000000000000000000000000000000000000000000602082015250565b60006134a46025836128c3565b91506134af82613448565b604082019050919050565b600060208201905081810360008301526134d381613497565b9050919050565b7f4552433732313a207472616e7366657220746f20746865207a65726f2061646460008201527f7265737300000000000000000000000000000000000000000000000000000000602082015250565b60006135366024836128c3565b9150613541826134da565b604082019050919050565b6000602082019050818103600083015261356581613529565b9050919050565b7f4e487b7100000000000000000000000000000000000000000000000000000000600052601260045260246000fd5b7f4f776e61626c653a2063616c6c6572206973206e6f7420746865206f776e6572600082015250565b60006135d16020836128c3565b91506135dc8261359b565b602082019050919050565b60006020820190508181036000830152613600816135c4565b9050919050565b600080833560016020038436030381126136245761362361335a565b5b80840192508235915067ffffffffffffffff8211156136465761364561335f565b5b60208301925060018202360383131561366257613661613364565b5b509250929050565b600060ff82169050919050565b6136808161366a565b811461368b57600080fd5b50565b60008135905061369d81613677565b92915050565b600067ffffffffffffffff8211156136be576136bd612d2c565b5b6136c7826128fe565b9050602081019050919050565b60006136e76136e2846136a3565b612d8c565b90508281526020810184848401111561370357613702612d27565b5b61370e848285612dd8565b509392505050565b600082601f83011261372b5761372a612b3f565b5b813561373b8482602086016136d4565b91505092915050565b6000806040838503121561375b5761375a6127f3565b5b60006137698582860161368e565b925050602083013567ffffffffffffffff81111561378a576137896127f8565b5b61379685828601613716565b9150509250929050565b6000819050919050565b6137b3816137a0565b82525050565b600082825260208201905092915050565b60006137d683856137b9565b93506137e3838584612dd8565b6137ec836128fe565b840190509392505050565b600060408201905061380c60008301866137aa565b818103602083015261381f8184866137ca565b9050949350505050565b7f4552433732313a20617070726f766520746f2063616c6c657200000000000000600082015250565b600061385f6019836128c3565b915061386a82613829565b602082019050919050565b6000602082019050818103600083015261388e81613852565b9050919050565b7f4552433732313a207472616e7366657220746f206e6f6e20455243373231526560008201527f63656976657220696d706c656d656e7465720000000000000000000000000000602082015250565b60006138f16032836128c3565b91506138fc82613895565b604082019050919050565b60006020820190508181036000830152613920816138e4565b9050919050565b600081519050919050565b600061393d82613927565b61394781856137b9565b93506139578185602086016128d4565b613960816128fe565b840191505092915050565b600060808201905061398060008301876129ff565b61398d60208301866129ff565b61399a6040830185612b15565b81810360608301526139ac8184613932565b905095945050505050565b6000815190506139c681612829565b92915050565b6000602082840312156139e2576139e16127f3565b5b60006139f0848285016139b7565b91505092915050565b7f4552433732313a206d696e7420746f20746865207a65726f2061646472657373600082015250565b6000613a2f6020836128c3565b9150613a3a826139f9565b602082019050919050565b60006020820190508181036000830152613a5e81613a22565b9050919050565b7f4552433732313a20746f6b656e20616c7265616479206d696e74656400000000600082015250565b6000613a9b601c836128c3565b9150613aa682613a65565b602082019050919050565b60006020820190508181036000830152613aca81613a8e565b905091905056fea2646970667358221220c8544889656526d1a90d1485c6b8b23f32496b4145d77c85c57bab28c57bdeb664736f6c63430008130033",
  "linkReferences": {},
  "deployedLinkReferences": {}
}